S020000053434434315F73656E736F725F444F475F70726F6772616D2E737265633C
S11300000C947A000C9499000C9499000C94990027
S11300100C9499000C9499000C9499000C949900F8
S11300200C9499000C9499000C9499000C949900E8
S11300300C9499000C9499000C9499000C949900D8
S11300400C9499000C9499000C9499000C949900C8
S11300500C9499000C9499000C9499000C949900B8
S11300600C9499000C9499000C9499000C949900A8
S11300700C9499000C9499000C9499000C94990098
S11300800C9499000C9499000C9499000C94990088
S11300900C9499000C9499000C9499000C94990078
S11300A00C9499000C9499000C9499000C94990068
S11300B00C9499000C9499000C9499000C94990058
S11300C00C9499000C9499000C9499000C94990048
S11300D00C9499000C9499000C9499000C94990038
S11300E00C9499000C9499000C9499000C94990028
S11300F00C94990011241FBECFEFCDBFDFE7DEBF04
S113010010E4A0E0B0E4E6EEFDE000E00BBF02C0C6
S113011007900D92A232B107D9F720E4A2E2B0E42D
S113012001C01D92A136B207E1F70E9412020C949D
S1130130F1060C94000019B891B19F7791B980939E
S11301404409809143098823E4F781B1806881B927
S1130150089591E099B991B19F7791B98093440939
S1130160809143098823E4F781B1806881B90895B7
S113017080B1806D80B988B1816088B981B18F7791
S113018081B9E0E4F9E081E2808387E0818381B191
S1130190806881B9089528E230E00BC00000019620
S11301A002C080E090E0803243E09407BCF3215029
S11301B0310912161306ACF3089521E030E00AC0A9
S11301C00000019602C080E090E082309105C4F303
S11301D02150310912161306B4F308950E94B80091
S11301E00E94CB0089E30E949B000E94DD0089E30A
S11301F00E949B000E94DD008EE10E949B000E94F1
S1130200DD0085E50E949B000E94DD008CE60E94D3
S11302109B000E94CB008FE70E949B000E94DD00A0
S11302208CE00E949B000E94DD0081E00E949B0004
S11302300E94DD0086E00E949B000E94DD0008957C
S1130240CF93DF930E94B80080E80E949B000E9435
S1130250DD00C0E0D0E009C0FE01E25DFF4B80811B
S11302600E94A9000E94DD002196C031D105A4F3AB
S113027080E90E949B000E94DD00C0E0D0E009C03C
S1130280FE01E15CFF4B80810E94A9000E94DD0019
S11302902196C031D105A4F380EA0E949B000E94FC
S11302A0DD00C0E0D0E009C0FE01E05BFF4B8081CF
S11302B00E94A9000E94DD002196C031D105A4F35B
S11302C0DF91CF91089580B1837F80B9E0E0F9E0B8
S11302D081EC868391E09583838308956093070975
S11302E02091050926FFFCCF9093080990910509F8
S11302F096FFFCCF809308098091050986FFFCCF07
S1130300E0E0F9E0848183608483089560930709C1
S11303102091050926FFFCCF9093080990910509C7
S113032096FFFCCF809308098091050986FFFCCFD6
S113033087EE93E00197F1F700C0000040930709AE
S1130340809105098823E4F7E0E0F9E08085809353
S11303502B408BEF8483809105098823E4F7E0E048
S1130360F9E0808580932C408BEF8483809105098C
S11303708823E4F7E0E0F9E0808580932D408BEF5B
S11303808483809105098823E4F787E08093040936
S11303900895609307092091050926FFFCCF9093E7
S11303A008099091050996FFFCCF80930809809174
S11303B0050986FFFCCF2FE78AE196E021508040B3
S11303C09040E1F700C000004093070980910509BF
S11303D08823E4F720E030E01EC080910809F90189
S11303E0EE5DFF4B8083809105098823E4F72F5F3E
S11303F03F4FC90163E070E00E94EC03892B31F4A4
S1130400E0E0F9E084818460848305C0E0E0F9E001
S113041084818B7F848329303105FCF287E08093CB
S1130420040908950E9463010E94B8000E94EE002E
S113043062E681EB91E20E946E0143E662E688EB9C
S113044094EE0E94860143E662E686E89FE30E94FA
S1130450C901C2E2D0E488811F928F9380E090E4C6
S11304609F938F938EE290E49F938F930E94140442
S113047069818FEA689FB0011124072E000C880B54
S1130480990B0E94F30220E030E040E857E30E9419
S11304907F0320E030E044E352E40E9484029F930F
S11304A08F937F936F938BE090E49F938F938FE36D
S11304B090E49F938F930E9414046A8194E6699F49
S11304C0B0011124072E000C880B990B0E94F30233
S11304D020E030E040E857E30E947F039F938F932E
S11304E07F936F9387E190E49F938F9380E590E4EB
S11304F09F938F930E9414040E9420018DB79EB78E
S113050046968DBF9EBF94CF5058BB27AA270E9402
S11305109C020C9445030E94370338F00E943E036A
S113052020F039F49F3F19F426F40C9434030EF4AC
S1130530E095E7FB0C942E03E92F0E94560358F331
S1130540BA17620773078407950720F079F4A6F5B4
S11305500C9478030EF4E0950B2EBA2FA02D0B010A
S1130560B90190010C01CA01A0011124FF27591BF4
S113057099F0593F50F4503E68F11A16F040A22FFA
S1130580232F342F4427585FF3CF4695379527956B
S1130590A795F0405395C9F77EF41F16BA0B620B6A
S11305A0730B840BBAF09150A1F0FF0FBB1F661FB1
S11305B0771F881FC2F70EC0BA0F621F731F841FF4
S11305C048F4879577956795B795F7959E3F08F01A
S11305D0B0CF9395880F08F09927EE0F97958795DC
S11305E00895E89409C097FB3EF490958095709522
S11305F061957F4F8F4F9F4F9923A9F0F92F96E96B
S1130600BB279395F695879577956795B795F111DF
S1130610F8CFFAF4BB0F11F460FF1BC06F5F7F4F7C
S11306208F4F9F4F16C0882311F096E911C077238E
S113063021F09EE8872F762F05C0662371F096E897
S1130640862F70E060E02AF09A95660F771F881F66
S1130650DAF7880F9695879597F9089597F99F6724
S113066080E870E060E008959FEF80EC0895002436
S11306700A941616170618060906089500240A9403
S113068012161306140605060895092E0394000C89
S113069011F4882352F0BB0F40F4BF2B11F460FF18
S11306A004C06F5F7F4F8F4F9F4F089557FD905841
S11306B0440F551F59F05F3F71F04795880F97FB22
S11306C0991F61F09F3F79F08795089512161306DC
S11306D01406551FF2CF4695F1DF08C0161617060B
S11306E01806991FF1CF8695710561050894089540
S11306F0E894BB2766277727CB0197F908950E94D2
S113070092030C9445030E94370338F00E943E0381
S113071020F0952311F00C942E030C94340311242F
S11307200C9479030E94560370F3959FC1F3950FBF
S113073050E0551F629FF001729FBB27F00DB11D61
S1130740639FAA27F00DB11DAA1F649F6627B00DF1
S1130750A11D661F829F2227B00DA11D621F739FDA
S1130760B00DA11D621F839FA00D611D221F749FE8
S11307703327A00D611D231F849F600D211D822F2F
S1130780762F6A2F11249F5750409AF0F1F0882356
S11307904AF0EE0FFF1FBB1F661F771F881F915083
S11307A05040A9F79E3F510580F00C942E030C9401
S11307B079035F3FE4F3983ED4F386957795679584
S11307C0B795F795E7959F5FC1F7FE2B880F911DAD
S11307D09695879597F9089597FB072E16F400943C
S11307E007D077FD09D00E94000407FC05D03EF431
S11307F0909581959F4F0895709561957F4F0895C9
S1130800AA1BBB1B51E107C0AA1FBB1FA617B70732
S113081010F0A61BB70B881F991F5A95A9F780954E
S11308209095BC01CD0108950F931F93CF93DF934F
S1130830CDB7DEB72E97CDBFDEBF0D891E8986E00A
S11308408C8309831A838FEF9FE78D839E83AE0188
S1130850475E5F4F6F89788DCE0101960E943D04FB
S1130860EF81F885E00FF11F10822E96CDBFDEBF19
S1130870DF91CF911F910F9108952F923F924F9244
S11308805F926F927F928F929F92AF92BF92CF921C
S1130890DF92EF92FF920F931F93CF93DF93CDB725
S11308A0DEB72B97CDBFDEBF6C017B018A01FC0153
S11308B016821782838181FFCCC1CE0101963C014F
S11308C0F6019381F70193FD859193FF81917F0157
S11308D0882309F4BAC1853239F493FD859193FFD5
S11308E081917F01853229F4B60190E00E94570678
S11308F0E7CF912C212C312CFFE1F315D8F08B326A
S113090079F038F4803279F08332A1F4232D206118
S11309101DC08D3261F0803369F4232D216016C02F
S1130920832D8260382EE32DE4603E2E2AC0F32D01
S1130930F8601DC037FC2DC020ED280F2A3040F090
S11309408E32B9F436FC81C1232D2064322E19C0B5
S113095036FE06C08AE0989E200D1124922E11C006
S1130960EAE02E9E200D1124222EF32DF0623F2E5C
S113097008C08C3621F4832D8068382E02C0883656
S113098041F4F70193FD859193FF81917F018111DA
S1130990B3CF982F9F7D9554933028F40C5F1F4F4D
S11309A09FE399830DC0833631F0833771F083352B
S11309B009F059C021C0F801808189830E5F1F4F5F
S11309C088248394912C530113C02801F2E04F0E24
S11309D0511CF801A080B18036FE03C0692D70E07F
S11309E002C06FEF7FEFC5010E944C064C018201EB
S11309F0F32DFF773F2E16C0280122E0420E511C32
S1130A00F801A080B18036FE03C0692D70E002C0F9
S1130A106FEF7FEFC5010E9441064C01F32DF06892
S1130A203F2E820133FC1BC0822D90E0881699066C
S1130A30B0F4B60180E290E00E9457062A94F4CF05
S1130A40F50137FC859137FE81915F01B60190E095
S1130A500E94570621102A9421E0821A91088114D9
S1130A60910471F7E8C0843611F0893641F5F80134
S1130A7037FE07C060817181828193810C5F1F4FB3
S1130A8008C060817181072E000C880B990B0E5FE2
S1130A901F4FF32DFF763F2E97FF09C09095809549
S1130AA0709561957F4F8F4F9F4FF0683F2E2AE0DE
S1130AB030E0A3010E949306882E861845C085372E
S1130AC031F4232D2F7EB22E2AE030E025C0932D61
S1130AD0997FB92E8F36C1F018F4883579F0B5C0F6
S1130AE0803719F0883721F0B0C0E92FE061BE2EBD
S1130AF0B4FE0DC0FB2DF460BF2E09C034FE0AC045
S1130B00292F2660B22E06C028E030E005C020E17F
S1130B1030E002C020E132E0F801B7FE07C0608196
S1130B207181828193810C5F1F4F06C06081718146
S1130B3080E090E00E5F1F4FA3010E949306882E71
S1130B408618FB2DFF773F2E36FE0DC0232D2E7FFA
S1130B50A22E891458F434FE0BC032FC09C0832D34
S1130B608E7EA82E05C0B82CA32C03C0B82C01C0BF
S1130B70B92CA4FE0FC0FE01E80DF11D8081803365
S1130B8021F49A2D997EA92E09C0A2FE06C0B39421
S1130B90B39404C08A2D867809F0B394A3FC11C0E1
S1130BA0A0FE06C0B21488F4280C922C9B180EC028
S1130BB0B21460F4B60180E290E00E945706B39448
S1130BC0F7CFB21418F42B1802C0982C212CA4FED1
S1130BD010C0B60180E390E00E945706A2FE17C041
S1130BE0A1FC03C088E790E002C088E590E0B6016C
S1130BF00CC08A2D867859F0A1FE02C08BE201C098
S1130C0080E2A7FC8DE2B60190E00E9457068914A9
S1130C1038F4B60180E390E00E9457069A94F7CF27
S1130C208A94F301E80DF11D8081B60190E00E94E1
S1130C3057068110F5CF222009F442CEB60180E296
S1130C4090E00E9457062A94F6CFF6018681978198
S1130C5002C08FEF9FEF2B96CDBFDEBFDF91CF9108
S1130C601F910F91FF90EF90DF90CF90BF90AF90C6
S1130C709F908F907F906F905F904F903F902F90B8
S1130C800895FC010590615070400110D8F78095DB
S1130C9090958E0F9F1F0895FC0161507040019044
S1130CA00110D8F7809590958E0F9F1F08950F938C
S1130CB01F93CF93DF93FB01238121FD03C08FEFAB
S1130CC09FEF2CC022FF16C04681578124813581B5
S1130CD04217530744F4A081B1819D012F5F3F4F18
S1130CE0208331838C93268137812F5F3F4F268366
S1130CF0378314C08B01EC01FB010084F185E02DE6
S1130D000995892BE1F6D80116968D919C91179738
S1130D10019616968D939C931797CE01DF91CF91F0
S1130D201F910F910895FA01AA27283051F120311B
S1130D3081F1E8946F936E7F6E5F7F4F8F4F9F4F6B
S1130D40AF4FB1E03ED0B4E03CD0670F781F891FAD
S1130D509A1FA11D680F791F8A1F911DA11D6A0F7B
S1130D60711D811D911DA11D20D009F468943F912E
S1130D702AE0269F11243019305D3193DEF6CF012D
S1130D800895462F4770405D4193B3E00FD0C9F7F3
S1130D90F6CF462F4F70405D4A3318F0495D31FD60
S1130DA04052419302D0A9F7EACFB4E0A6959795B3
S1130DB0879577956795BA95C9F700976105710589
S1130DC008959B01AC010A2E0694579547953795D3
S1130DD02795BA95C9F7620F731F841F951FA01D2D
S1090DE00895F894FFCF12
S1130DE6434F323A20252D3132640054656D703AF2
S1130DF620252D3131660052483A20252D3133669F
S1050E060000E6
S9030000FC
