S01C000053434434315F4C43445F444F475F53454E534F522E7372656325
S11300000C947A000C9499000C9499000C94990027
S11300100C9499000C9499000C9499000C949900F8
S11300200C9499000C9499000C9499000C949900E8
S11300300C9499000C9499000C9499000C949900D8
S11300400C9499000C9499000C9499000C949900C8
S11300500C9499000C9499000C9499000C949900B8
S11300600C9499000C9499000C9499000C949900A8
S11300700C9499000C9499000C9499000C94990098
S11300800C9499000C9499000C9499000C94990088
S11300900C9499000C9499000C9499000C94990078
S11300A00C9499000C9499000C9499000C94990068
S11300B00C9499000C9499000C9499000C94990058
S11300C00C9499000C9499000C9499000C94990048
S11300D00C9499000C9499000C9499000C94990038
S11300E00C9499000C9499000C9499000C94990028
S11300F00C94990011241FBECFEFCDBFDFE7DEBF04
S113010010E4A0E0B0E4EAE3F1E100E00BBF02C0D8
S113011007900D92A432B107D9F720E4A4E2B0E429
S113012001C01D92A736B207E1F70E9468030C9440
S11301309B080C94000019B891B19F7791B98093F2
S11301404409809143098823E4F781B1806881B927
S1130150089591E099B991B19F7791B98093440939
S1130160809143098823E4F781B1806881B90895B7
S113017080B1806D80B988B1816088B981B18F7791
S113018081B9E0E4F9E081E2808387E0818381B191
S1130190806881B9089528E230E00BC00000019620
S11301A002C080E090E0803243E09407BCF3215029
S11301B0310912161306ACF3089521E030E00AC0A9
S11301C00000019602C080E090E082309105C4F303
S11301D02150310912161306B4F308950E94B80091
S11301E00E94CB0089E30E949B000E94DD0089E30A
S11301F00E949B000E94DD008EE10E949B000E94F1
S1130200DD0085E50E949B000E94DD008CE60E94D3
S11302109B000E94CB008FE70E949B000E94DD00A0
S11302208CE00E949B000E94DD0081E00E949B0004
S11302300E94DD0086E00E949B000E94DD0008957C
S1130240CF93DF930E94B80080E80E949B000E9435
S1130250DD00C0E0D0E009C0FE01EC5CFF4B808112
S11302600E94A9000E94DD002196C031D105A4F3AB
S113027080E90E949B000E94DD00C0E0D0E009C03C
S1130280FE01EB5BFF4B80810E94A9000E94DD0010
S11302902196C031D105A4F380EA0E949B000E94FC
S11302A0DD00C0E0D0E009C0FE01EA5AFF4B8081C6
S11302B00E94A9000E94DD002196C031D105A4F35B
S11302C0DF91CF91089580B110B8E0E0F9E08EE0BD
S11302D0868381E083838583089560930709209151
S11302E0050926FFFCCF909308099091050996FF14
S11302F0FCCF809308098091050986FFFCCFE0E0DC
S1130300F9E08481836084830895609307092091D0
S1130310050926FFFCCF909308099091050996FFE3
S1130320FCCF809308098091050986FFFCCF87EEF6
S113033093E00197F1F700C0000040930709809112
S113034005098823E4F7E0E0F9E0808580933140F3
S113035082E08483809105098823E4F7E0E0F9E0F2
S113036080858093324082E08483809105098823CC
S1130370E4F7E0E0F9E080858093334082E0848311
S1130380809105098823E4F787E0809304090895A0
S1130390609307092091050926FFFCCF9093080973
S11303A09091050996FFFCCF809308098091050977
S11303B086FFFCCF87EE93E00197F1F700C00000C1
S11303C04093070920E030E00FC08091050988239D
S11303D0E4F7E0E0F9E08085D901A85DBF4B8C9398
S11303E082E084832F5F3F4F2930310574F387E027
S11303F080930409089590E0982F8827862B089508
S1130400929582958F7089279F7089279C01220F6E
S1130410331F220F331F820F931F929582958F7083
S113042089279F7089279C01220F331F220F331FB6
S1130430280F391F329522952F7023273F702327C9
S1130440C901880F991F880F991F880F991F821B54
S1130450930B929582958F7089279F7089278D972A
S113046008959C01220F331F220F331F820F931F05
S1130470892F9927869586959C01220F331F220F79
S1130480331F820F931F929582958F7089279F70D7
S1130490892708958FEF8CB91DB80895CF92DF9204
S11304A0EF92FF92BC0180E090E00E949A046B01FD
S11304B07C0120E030E048EC53E40E94F4038823FC
S11304C00CF4AFC020E030E048EC53E4C701B601BF
S11304D00E944C0588236CF020E030E849EF53E497
S11304E0C701B6010E94F40318161CF08EEF8DB9F3
S11304F098C020E030E04AEF53E4C701B6010E94FF
S11305004C0588236CF020E030EC45E154E4C7014D
S1130510B6010E94F40318161CF08CEF8DB981C04B
S113052020E030E046E154E4C701B6010E944C05E6
S113053088236CF020E030EC4EE254E4C701B601AD
S11305400E94F40318161CF088EF8DB96AC020E0ED
S113055030E04FE254E4C701B6010E944C05882301
S11305606CF020E030EC47E454E4C701B6010E948B
S1130570F40318161CF080EF8DB953C020E030E06E
S113058048E454E4C701B6010E944C0588236CF08A
S113059020E030EC40E654E4C701B6010E94F403C5
S11305A018161CF080EE8DB93CC020E030E041E626
S11305B054E4C701B6010E944C0588236CF020E086
S11305C030EC49E754E4C701B6010E94F40318165D
S11305D01CF080EC8DB925C020E030E04AE754E4FB
S11305E0C701B6010E944C0588236CF020E030E678
S11305F049E854E4C701B6010E94F40318161CF03C
S113060080E88DB90EC020E030E849E854E4C70121
S1130610B6010E944C05882314F01DB802C085E37E
S11306208DB9FF90EF90DF90CF90089510922640FF
S1130630109227401092244010922540E0E2F4E00A
S113064080818B7F808388E0828B84B1816084B9D0
S1130650089521E020932004BC0180E090E00E94F2
S11306609A0420E030E040E851E40E9451059B01E7
S1130670AC0160E074E284E79DE40E94F9030E9407
S11306806B04E0E6F8E06087718783E0878380ECA1
S11306908683109226401092274010922440109294
S11306A025400895AC0120E030E00EC0FA01E20FCD
S11306B0F31F9081909362088FE097E20197F1F71E
S11306C000C000002F5F3F4F213131057CF30895B6
S11306D00E9463010E94B8000E94EE000E9416036B
S11306E080E895E20E9429030E944A027894E8E295
S11306F0F0E4618180810E94FB010E944E0264EC5F
S113070081EB91E20E946D0145EC64EC88EB94EE80
S11307100E94850180913240811105C08091314051
S1130720877009F44FC045EC64EC85E09CEE0E94B0
S1130730C801C8E2D0E4698188810E94FB019F93CB
S11307408F9380E090E49F938F9384E390E49F934E
S11307508F930E94BE0584E390E40E9452036C814F
S11307608B810E94FB010E9400029F938F938CE077
S113077090E49F938F9385E490E49F938F930E94DA
S1130780BE0585E490E40E9452036F818E810E942D
S1130790FB010E9431029F938F9388E190E49F9321
S11307A08F9386E590E49F938F930E94BE0586E520
S11307B090E40E9452030E9420018DB79EB7429696
S11307C08DBF9EBF9FE72AE186E091502040804084
S11307D0E1F700C00000E8E2F0E4618180810E945A
S11307E0FB010E944E0283CF0E94D70408F481E0EB
S11307F008950E940D040C9412050E940B0558F0F4
S11308000E94040540F029F45F3F29F00C94FB0496
S113081051110C9446050C9401050E94230568F3BC
S11308209923B1F3552391F3951B550BBB27AA27A5
S113083062177307840738F09F5F5F4F220F331FDF
S1130840441FAA1FA9F335D00E2E3AF0E0E832D0A7
S113085091505040E695001CCAF72BD0FE2F29D0AA
S1130860660F771F881FBB1F261737074807AB077C
S1130870B0E809F0BB0B802DBF01FF2793585F4FF1
S11308803AF09E3F510578F00C94FB040C94460515
S11308905F3FE4F3983ED4F3869577956795B795D3
S11308A0F7959F5FC9F7880F911D9695879597F9DE
S11308B00895E1E0660F771F881FBB1F6217730757
S11308C08407BA0720F0621B730B840BBA0BEE1F6C
S11308D088F7E09508950E942B0588F09F5798F0BB
S11308E0B92F9927B751B0F0E1F0660F771F881F31
S11308F0991F1AF0BA95C9F714C0B13091F00E944B
S11309004505B1E008950C944505672F782F882795
S1130910B85F39F0B93FCCF3869577956795B39571
S1130920D9F73EF490958095709561957F4F8F4FE0
S11309309F4F0895E89409C097FB3EF490958095E5
S1130940709561957F4F8F4F9F4F9923A9F0F92F91
S113095096E9BB279395F695879577956795B7950F
S1130960F111F8CFFAF4BB0F11F460FF1BC06F5FF5
S11309707F4F8F4F9F4F16C0882311F096E911C007
S1130980772321F09EE8872F762F05C0662371F028
S113099096E8862F70E060E02AF09A95660F771F3C
S11309A0881FDAF7880F9695879597F90895990F18
S11309B00008550FAA0BE0E8FEEF16161706E80725
S11309C0F907C0F012161306E407F50798F0621B46
S11309D0730B840B950B39F40A2661F0232B242B1B
S11309E0252B21F408950A2609F4A140A6958FEF3A
S11309F0811D811D089597F99F6780E870E060E08C
S1130A0008959FEF80EC089500240A9416161706A3
S1130A1018060906089500240A94121613061406EB
S1130A2005060895092E0394000C11F4882352F04E
S1130A30BB0F40F4BF2B11F460FF04C06F5F7F4F06
S1130A408F4F9F4F089557FD9058440F551F59F0ED
S1130A505F3F71F04795880F97FB991F61F09F3FA7
S1130A6079F087950895121613061406551FF2CFD0
S1130A704695F1DF08C0161617061806991FF1CF20
S1130A8086957105610508940895E894BB27662747
S1130A907727CB0197F908950E94D70408F48FEFC4
S1130AA008950E9464050C9412050E94040538F010
S1130AB00E940B0520F0952311F00C94FB040C9478
S1130AC0010511240C9446050E94230570F3959F9B
S1130AD0C1F3950F50E0551F629FF001729FBB2731
S1130AE0F00DB11D639FAA27F00DB11DAA1F649FCD
S1130AF06627B00DA11D661F829F2227B00DA11D80
S1130B00621F739FB00DA11D621F839FA00D611D05
S1130B10221F749F3327A00D611D231F849F600D26
S1130B20211D822F762F6A2F11249F5750409AF04F
S1130B30F1F088234AF0EE0FFF1FBB1F661F771FDB
S1130B40881F91505040A9F79E3F510580F00C94A6
S1130B50FB040C9446055F3FE4F3983ED4F386957A
S1130B6077956795B795F795E7959F5FC1F7FE2B46
S1130B70880F911D9695879597F908950F931F9364
S1130B80CF93DF93CDB7DEB72E97CDBFDEBF0D89F0
S1130B901E8986E08C8309831A838FEF9FE78D83F8
S1130BA09E83AE01475E5F4F6F89788DCE010196BB
S1130BB00E94E705EF81F885E00FF11F10822E9661
S1130BC0CDBFDEBFDF91CF911F910F9108952F927A
S1130BD03F924F925F926F927F928F929F92AF92C9
S1130BE0BF92CF92DF92EF92FF920F931F93CF9316
S1130BF0DF93CDB7DEB72B97CDBFDEBF6C017B0192
S1130C008A01FC0116821782838181FFCCC1CE0147
S1130C1001963C01F6019381F70193FD859193FFC1
S1130C2081917F01882309F4BAC1853239F493FD97
S1130C30859193FF81917F01853229F4B60190E07B
S1130C400E940108E7CF912C212C312CFFE1F315F0
S1130C50D8F08B3279F038F4803279F08332A1F411
S1130C60232D20611DC08D3261F0803369F4232D62
S1130C70216016C0832D8260382EE32DE4603E2E61
S1130C802AC0F32DF8601DC037FC2DC020ED280FBD
S1130C902A3040F08E32B9F436FC81C1232D206411
S1130CA0322E19C036FE06C08AE0989E200D11240B
S1130CB0922E11C0EAE02E9E200D1124222EF32D37
S1130CC0F0623F2E08C08C3621F4832D8068382EC4
S1130CD002C0883641F4F70193FD859193FF819119
S1130CE07F018111B3CF982F9F7D9554933028F4C1
S1130CF00C5F1F4F9FE399830DC0833631F0833718
S1130D0071F0833509F059C021C0F80180818983CD
S1130D100E5F1F4F88248394912C530113C0280124
S1130D20F2E04F0E511CF801A080B18036FE03C0E2
S1130D30692D70E002C06FEF7FEFC5010E94F607D6
S1130D404C018201F32DFF773F2E16C0280122E0CB
S1130D50420E511CF801A080B18036FE03C0692DFB
S1130D6070E002C06FEF7FEFC5010E94EB074C01FA
S1130D70F32DF0683F2E820133FC1BC0822D90E0DE
S1130D8088169906B0F4B60180E290E00E9401084A
S1130D902A94F4CFF50137FC859137FE81915F01E8
S1130DA0B60190E00E94010821102A9421E0821AE1
S1130DB091088114910471F7E8C0843611F08936E2
S1130DC041F5F80137FE07C060817181828193810A
S1130DD00C5F1F4F08C060817181072E000C880BC7
S1130DE0990B0E5F1F4FF32DFF763F2E97FF09C01F
S1130DF090958095709561957F4F8F4F9F4FF068C8
S1130E003F2E2AE030E0A3010E943D08882E861878
S1130E1045C0853731F4232D2F7EB22E2AE030E0F1
S1130E2025C0932D997FB92E8F36C1F018F48835DB
S1130E3079F0B5C0803719F0883721F0B0C0E92FB8
S1130E40E061BE2EB4FE0DC0FB2DF460BF2E09C0C0
S1130E5034FE0AC0292F2660B22E06C028E030E0F6
S1130E6005C020E130E002C020E132E0F801B7FE25
S1130E7007C060817181828193810C5F1F4F06C01E
S1130E806081718180E090E00E5F1F4FA3010E949A
S1130E903D08882E8618FB2DFF773F2E36FE0DC0A9
S1130EA0232D2E7FA22E891458F434FE0BC032FC5D
S1130EB009C0832D8E7EA82E05C0B82CA32C03C098
S1130EC0B82C01C0B92CA4FE0FC0FE01E80DF11D21
S1130ED08081803321F49A2D997EA92E09C0A2FE27
S1130EE006C0B394B39404C08A2D867809F0B394F1
S1130EF0A3FC11C0A0FE06C0B21488F4280C922CE6
S1130F009B180EC0B21460F4B60180E290E00E9417
S1130F100108B394F7CFB21418F42B1802C0982C1C
S1130F20212CA4FE10C0B60180E390E00E940108C9
S1130F30A2FE17C0A1FC03C088E790E002C088E5C8
S1130F4090E0B6010CC08A2D867859F0A1FE02C04B
S1130F508BE201C080E2A7FC8DE2B60190E00E9422
S1130F600108891438F4B60180E390E00E94010876
S1130F709A94F7CF8A94F301E80DF11D8081B601AC
S1130F8090E00E9401088110F5CF222009F442CE9E
S1130F90B60180E290E00E9401082A94F6CFF6019F
S1130FA08681978102C08FEF9FEF2B96CDBFDEBF66
S1130FB0DF91CF911F910F91FF90EF90DF90CF9031
S1130FC0BF90AF909F908F907F906F905F904F9065
S1130FD03F902F900895FC010590615070400110DE
S1130FE0D8F7809590958E0F9F1F0895FC0161504E
S1130FF0704001900110D8F7809590958E0F9F1F37
S113100008950F931F93CF93DF93FB01238121FD59
S113101003C08FEF9FEF2CC022FF16C0468157817B
S1131020248135814217530744F4A081B1819D0185
S11310302F5F3F4F208331838C93268137812F5F2D
S11310403F4F2683378314C08B01EC01FB010084DE
S1131050F185E02D0995892BE1F6D80116968D913D
S11310609C911797019616968D939C931797CE0192
S1131070DF91CF911F910F910895FA01AA2728308B
S113108051F1203181F1E8946F936E7F6E5F7F4F51
S11310908F4F9F4FAF4FB1E03ED0B4E03CD0670FCD
S11310A0781F891F9A1FA11D680F791F8A1F911D20
S11310B0A11D6A0F711D811D911DA11D20D009F470
S11310C068943F912AE0269F11243019305D3193B2
S11310D0DEF6CF010895462F4770405D4193B3E09B
S11310E00FD0C9F7F6CF462F4F70405D4A3318F042
S11310F0495D31FD4052419302D0A9F7EACFB4E0F3
S1131100A6959795879577956795BA95C9F70097AA
S11311106105710508959B01AC010A2E069457954B
S1131120479537952795BA95C9F7620F731F841FA2
S10D1130951FA01D0895F894FFCF49
S113113A434F323A2020252D3131640054656D70B5
S113114A3A20252D3131640052483A202020252D99
S107115A31316400C7
S9030000FC
